:020000040000FA
:060000000A128A11F72F1D
:100F2C00703083168F040F190800992FA82F730B9C
:100F3C000800F401F3010800730B0800F401F40A33
:100F4C00F30108007408003A0319A22F013A03199F
:100F5C009D2FB02F08000A128A1196270A128A11A7
:100F6C000317880189010313051006148113F4017A
:100F7C00F40A0A128A119C270A128A110A128A117F
:100F8C00D3270A128A110330F6009730F500F50BBF
:100F9C00CD2FF60BCD2FD22FBF2F831203130608A4
:100FAC00013972060319F42FF00A0319F10A7108BA
:100FBC00803AFF0083307F02031DE62FE930700278
:100FCC00031C080000308312031306180130F200D2
:100FDC007208031D0800F301F30A0800F001F10187
:100FEC000800F001F101F201F301F40183010A128E
:040FFC008A11B12F76
:02400E00F4EFCD
:00000001FF
